:1000000010C02AC029C028C027C026C025C024C0CF
:1000100023C035C221C020C01FC01EC01DC01CC0CF
:100020001BC011241FBECFE5D2E0DEBFCDBF11E063
:10003000A0E6B0E0EAEEFCE002C005900D92AE331F
:10004000B107D9F721E0AEE3B1E001C01D92A33AB8
:10005000B207E1F775D247C6D3CF0F931F93CF9363
:10006000DF93CDB7DEB7C456D1090FB6F894DEBF23
:100070000FBECDBF7F936F939F938F9385E690E0E4
:100080009F938F938E010F5F1F4F1F930F935CD32E
:10009000C801B9D264E670E0C801D6D20FB6F894B0
:1000A000DEBF0FBECDBF80E0CC59DF4F0FB6F89456
:1000B000DEBF0FBECDBFDF91CF911F910F9108958D
:1000C0005F926F927F928F929F92AF92BF92CF92E8
:1000D000DF92EF92FF920F931F93CF93DF93CDB7F1
:1000E000DEB7C456D1090FB6F894DEBF0FBECDBF40
:1000F0007C01662E572E6A01590180E0F701E80F56
:10010000F11D708071108AC0F601E70DF11D90811C
:10011000911186C0892E912CF501E80DF91D2081E1
:10012000211180C0815B780E790E88E790E06BD258
:1001300064E670E08E010F5F1F4FC80185D25F92A9
:100140006F92FF92EF9284E890E09F938F931F93BA
:100150000F93FAD2C80157D264E670E0C80174D296
:100160001F927F928EE990E09F938F931F930F933E
:10017000EBD2C80148D264E670E0C80165D2DF92D4
:10018000CF928CEA90E09F938F931F930F93DCD2D2
:10019000C80139D2FF92EF928DEB90E09F938F933D
:1001A0001F930F93D1D2C8012ED286EC90E02BD2B0
:1001B0009F928F9285EE90E09F938F931F930F9362
:1001C000C3D20FB6F894DEBF0FBECDBFC8011BD29D
:1001D00081E191E018D2C50116D282E1F82E64E6E1
:1001E00070E0C80131D2FA94F110F9CF80E0CC5917
:1001F000DF4F0FB6F894DEBF0FBECDBFDF91CF91BA
:100200001F910F91FF90EF90DF90CF90BF90AF9034
:100210009F908F907F906F905F9008958F5F6ECFCB
:10022000739472CF9F5F76CF0F931F93CF93DF931B
:10023000EC01892B81F08881882369F089818823EA
:1002400051F08A81882339F08B81882321F08C81B9
:1002500000E081110EC082E0DF91CF911F910F91DC
:10026000089542E050E068EF70E03ED2892BC1F083
:100270000F5FCE01800F911DFC0112811111F1CF92
:10028000CE01810F911DFC012581222321F345E040
:1002900050E06BEF70E028D2892B21F01F5FF0CF88
:1002A00080E0DACF81E0D8CF87B3807F87BBD99A4F
:1002B000DA9882E08A95F1F700C0D89A92E09A9590
:1002C000F1F700C086B38295807F92E09A95F1F7AE
:1002D00000C0D89895E09A95F1F70000D89A92E07E
:1002E0009A95F1F700C096B392E09A95F1F700C0A5
:1002F000D89895E09A95F1F7000087FDDECFD99860
:1003000087B38F6087BB0895282F22952F708F7039
:10031000611122C0DA9892E09A95F1F700C0D89A5C
:1003200098B3907F922B98BB95E09A95F1F70000D7
:10033000D89895E09A95F1F70000D89A98B3907FF5
:10034000892B88BB85E08A95F1F70000D89895E065
:100350009A95F1F70000A8CFDA9ADDCFCF93C82F96
:100360002FEF86E791E0215080409040E1F700C0F8
:10037000000087B38F6087BBD09AD29AD19A88B396
:10038000807F88BBD898D998DA9800C000C0000058
:10039000D89AC19A25E02A95F1F70000D89885E00F
:1003A0008A95F1F7000080DF60E08C2F8C60ACDF75
:1003B00060E088E2CF91A8CFCF93DF93EC018991E1
:1003C000811103C0DF91CF91089561E09DDFF7CFE8
:1003D000EF92FF920F931F93CF93DF9300D000D043
:1003E0000F92CDB7DEB78C019B0185E0E0E6F0E02F
:1003F000DE01119601900D928A95E1F7FE01369685
:100400008AE0E82EF12C0115110551F4FE01319618
:100410002F3F320769F005E010E0021B130B0BC001
:10042000C801B7013AD182938B01EDCF0F5F1F4F07
:1004300081918823D9F30530110564F00F900F9056
:100440000F900F900F90DF91CF911F910F91FF9020
:10045000EF900895E1E0F0E0EC0FFD1FE00FF11FD9
:10046000808161E0805D50DF0F5F1F4FE4CF8832F5
:1004700028F46111806460E0806846CF08951F927F
:100480000F920FB60F9211242F933F934F935F93C8
:100490006F937F938F939F93AF93BF93EF93FF934C
:1004A000F89420913E01822F90E03CB1FC01E15C88
:1004B000FE4F308301972436D9F0DC01A15CBE4F9A
:1004C0003C913D3019F430813A3091F03C913A3012
:1004D00019F430813D3061F03C913D3019F43081A8
:1004E000353131F03C91353139F530813D3021F5F0
:1004F000815C9E4FFC01108210923E0160E080E022
:10050000B6DF81E091E058DF60E080E0B0DF8FE3AC
:1005100091E052DF7894FF91EF91BF91AF919F915D
:100520008F917F916F915F914F913F912F910F909C
:100530000FBE0F901F9018952F5F20933E01EACFBA
:1005400000D000D0CDB7DEB787E690E02DD080E0B8
:1005500005DF60E081E0D8DE22E131E044E251E0F5
:100560006FE873E18DE291E0ABDD10E04AE0BE019F
:100570006F5F7F4F812F90E0C4D061E080E077DF34
:1005800081E091E019DF61E080E071DFCE0101964A
:1005900013DF1F5F2FEF83ED90E3215080409040E9
:1005A000E1F700C00000E2CF90BD89B959988AB147
:1005B00088698AB986E880BD08955D9BFECF8CB9B5
:1005C00008950F931F93CF93DF93EC018C01060FD7
:1005D000171FC017D10729F4DF91CF911F910F91F9
:1005E00008958991EADFF5CFCF93DF93EC018991EC
:1005F000811103C0DF91CF910895DFDFF8CF8DE047
:10060000DCDF8AE0DACFF0DFFACF5F9BFECF8CB180
:100610000895FF920F931F93CF93DF93EC018B010B
:10062000F42E672B59F0009749F0080F191FEDDFE2
:1006300089930C171D0711F08F11F9CFDF91CF911E
:100640001F910F91FF9008950F931F93CF93DF9306
:10065000EC018B01672B89F0009779F0080F191FC7
:10066000D4DF8883FE0121960C171D0731F03197E6
:1006700090819D3039F48A3051F4DF91CF911F91F0
:100680000F9108959A3031F48D3051F7F6CF8531BE
:1006900039F7F3CF9531C1F3E3CF97FB072E16F46B
:1006A000009406D077FD08D00BD007FC05D03EF4AF
:1006B000909581959F4F0895709561957F4F08950E
:1006C000AA1BBB1B51E107C0AA1FBB1FA617B70778
:1006D00010F0A61BB70B881F991F5A95A9F7809594
:1006E0009095BC01CD010895FB01DC0104C08D9102
:1006F0000190801921F441505040C8F7881B990B94
:100700000895BB274A3031F4992322F4BDE2909535
:1007100081959F4F01C0BB27FB015527AA27880F52
:10072000991FAA1FA41710F0A41B83955051B9F765
:10073000A05DAA3308F0A95DA193009779F7B111E4
:10074000B1931192CB01FAC1AEE0B0E0E9EAF3E077
:10075000A1C20D891E8986E08C831A8309838FEFDD
:100760009FE79E838D83AE01475E5F4F6F89788DD3
:10077000CE01019609D02F813885020F131FF80191
:1007800010822E96E4E0A2C2AFE0B0E0E9ECF3E024
:1007900073C27C013B018A01DC0117961C921E92F8
:1007A000169713968C9181FFB0C19AE0292EFE0115
:1007B00031964F01D70113969C91F30193FD8591DA
:1007C00093FF81913F01882309F43AC1853239F4BE
:1007D00093FD859193FF81913F01853221F4B7010B
:1007E00090E0BCD1E7CFB12C412C512CBFE1B51525
:1007F00038F08B3209F188F4803201F1833221F133
:1008000057FC3AC020ED280F2A3040F556FE1FC095
:10081000B29C200D1124B22E06C08D3291F080338F
:1008200079F7689450F8F30193FD859193FF8191D6
:100830003F018111DBCF20C0689451F8689452F8D1
:10084000F2CF689453F8EFCF689454F8ECCF429C01
:10085000200D1124422E689455F8E5CF8E3229F4EC
:1008600056FCEEC0689456F8DECF8C3619F46894C6
:1008700057F8D9CF8836B9F2982F9F7D9554933089
:10088000B8F0833691F18337B1F1833509F056C062
:10089000D801CD90DD908D016B2D70E056FC02C02B
:1008A0006FEF7FEFC60134D15C01689457F80AC03E
:1008B0000C5F1F4FEFE3E983AA24A394B12C6401DA
:1008C000E89457F853FC04C04A141B0409F008F5D7
:1008D000342CA114B10419F5332009F46BCFB701FE
:1008E00080E290E03BD13A94F7CFD8018C91898394
:1008F0000E5F1F4FE1CFF801C190D1908F016B2D9A
:1009000070E056FC02C06FEF7FEFC6010CD15C01B6
:10091000D7CFB70180E290E021D14A94D5CFF6013C
:1009200057FC859157FE81916F01B70190E016D178
:1009300031103A94B1E0AB1AB108CBCF843619F03C
:10094000893609F06DC0F80157FE63C0619171915D
:10095000819191918F01E52DEF76DE2E97FF09C0F1
:1009600090958095709561957F4F8F4F9F4F6894BC
:10097000D7F82AE030E0A40121D1C82EC818AC2C49
:100980005D2CD6FE0CC0E89450F8CB1440F4D4FE95
:1009900005C0D2FC03C05D2D5E7E552EAB2C54FEEF
:1009A0008EC0FE01EC0DF11D8081803309F080C006
:1009B000652D697E562E752D7870372E53FC8DC0AF
:1009C00050FE87C0BC2CA41410F4B40CBA1854FE0A
:1009D0008AC0B70180E390E0C1D052FE06C088E72C
:1009E00051FC88E590E0B701B9D0CB1408F487C07A
:1009F000CA94D12C8FEFC81AD80AC80CD91CD601BA
:100A00008E916D01B70190E0A9D08C149D04B9F7C7
:100A100063CF61917191072E000C880B990B9ACFCF
:100A2000D52CE894D4F82AE0853721F1F52DF97F0B
:100A3000DF2E803799F050F4883599F08F36C9F061
:100A4000F701868197812F96E2E132C18837C1F79D
:100A5000D4FE02C06894D2F820E10CC06894D4F8A7
:100A6000F7CF54FE03C02F2F2660D22E20E132E0B4
:100A700002C028E030E0F801D7FE14C04191519146
:100A8000619171914C875D876E877F878F01A4018B
:100A90006C857D858E859F8591D0C82EC818E89479
:100AA000D7F86DCF81919191AC0170E060E0EACF11
:100AB00052FC02C0A3947FCFA394A3947CCF852D36
:100AC000867809F478CFF6CFB70180E290E046D07F
:100AD000A394A414C8F3312C7ACF342C3A18A4145C
:100AE00008F475CFF8CF852D867809F47ECF8BE298
:100AF00051FE80E257FC8DE2B70190E075CFB7015F
:100B000080E390E02BD0BA9470CF8FEF9FEF9BCF14
:100B1000FC010590615070400110D8F780959095C8
:100B20008E0F9F1F0895FC016150704001900110CD
:100B3000D8F7809590958E0F9F1F0895DC01FC01DA
:100B4000672F71917723E1F7329704C07C916D9301
:100B500070836291AE17BF07C8F308950F931F9378
:100B6000CF93DF93182F092FEB018B8181FD09C0F3
:100B70001FEF0FEF812F902FDF91CF911F910F91DA
:100B8000089582FF14C02E813F818C819D8128179A
:100B900039073CF4E881F981CF0101969983888374
:100BA00010838E819F8101969F838E83E3CFE8859A
:100BB000F985812F0995892BA1F3DACFFA01AA27AC
:100BC000283051F1203181F1E8946F936E7F6E5F90
:100BD0007F4F8F4F9F4FAF4FB1E03ED0B4E03CD03E
:100BE000670F781F891F9A1FA11D680F791F8A1F21
:100BF000911DA11D6A0F711D811D911DA11D20D088
:100C000009F468943F912AE0269F11243019305D41
:100C10003193DEF6CF010895462F4770405D419332
:100C2000B3E00FD0C9F7F6CF462F4F70405D4A337F
:100C300018F0495D31FD4052419302D0A9F7EACF47
:100C4000B4E0A6959795879577956795BA95C9F776
:100C500000976105710508959B01AC010A2E069469
:100C60005795479537952795BA95C9F7620F731F22
:100C7000841F951FA01D08952F923F924F925F925F
:100C80006F927F928F929F92AF92BF92CF92DF929C
:100C9000EF92FF920F931F93CF93DF93CDB7DEB701
:100CA000CA1BDB0B0FB6F894DEBF0FBECDBF099495
:100CB0002A88398848885F846E847D848C849B84EC
:100CC000AA84B984C884DF80EE80FD800C811B81FA
:100CD000AA81B981CE0FD11D0FB6F894DEBF0FBE29
:0A0CE000CDBFED010895F894FFCF99
:100CEA00000000000041542B43574A41503D222541
:100CFA0073222C222573220041542B4349504D550F
:100D0A00583D300041542B43495053544152543DAD
:100D1A0022544350222C222573222C25640041544C
:100D2A002B43495053454E443D256400504F53547C
:100D3A0020257320485454502F312E3100486F73A8
:100D4A00743A20257300436F6E74656E742D54795E
:100D5A0070653A206170706C69636174696F6E2F97
:100D6A006A736F6E00436F6E74656E742D4C656E98
:100D7A006774683A202564004F4B004552524F521F
:100D8A000020202020202020202020202020202079
:100D9A0020007B226D7367223A226A616A61207899
:100DAA0044227D002F73656E736F7273006A6673D7
:0E0DBA007230302E64646E732E6E657400000D
:00000001FF
